{"abi":[{"type":"constructor","inputs":[],"stateMutability":"nonpayable"},{"type":"receive","stateMutability":"payable"},{"type":"function","name":"agent","inputs":[],"outputs":[{"name":"","type":"address","internalType":"address"}],"stateMutability":"view"},{"type":"function","name":"currentDay","inputs":[],"outputs":[{"name":"","type":"uint256","internalType":"uint256"}],"stateMutability":"view"},{"type":"function","name":"currentDayLoss","inputs":[],"outputs":[{"name":"","type":"uint256","internalType":"uint256"}],"stateMutability":"view"},{"type":"function","name":"dailyLossLimit","inputs":[],"outputs":[{"name":"","type":"uint256","internalType":"uint256"}],"stateMutability":"view"},{"type":"function","name":"executeTrade","inputs":[{"name":"tokenIn","type":"address","internalType":"address"},{"name":"tokenOut","type":"address","internalType":"address"},{"name":"amountIn","type":"uint256","internalType":"uint256"},{"name":"projectedLoss","type":"uint256","internalType":"uint256"},{"name":"data","type":"bytes","internalType":"bytes"}],"outputs":[],"stateMutability":"nonpayable"},{"type":"function","name":"initialize","inputs":[{"name":"_owner","type":"address","internalType":"address"},{"name":"_agent","type":"address","internalType":"address"},{"name":"_maxSwapSize","type":"uint256","internalType":"uint256"},{"name":"_dailyLossLimit","type":"uint256","internalType":"uint256"},{"name":"_tokens","type":"address[]","internalType":"address[]"}],"outputs":[],"stateMutability":"nonpayable"},{"type":"function","name":"isFrozen","inputs":[],"outputs":[{"name":"","type":"bool","internalType":"bool"}],"stateMutability":"view"},{"type":"function","name":"killSwitch","inputs":[],"outputs":[],"stateMutability":"nonpayable"},{"type":"function","name":"maxSwapSize","inputs":[],"outputs":[{"name":"","type":"uint256","internalType":"uint256"}],"stateMutability":"view"},{"type":"function","name":"owner","inputs":[],"outputs":[{"name":"","type":"address","internalType":"address"}],"stateMutability":"view"},{"type":"function","name":"unfreeze","inputs":[],"outputs":[],"stateMutability":"nonpayable"},{"type":"function","name":"whitelistedTokens","inputs":[{"name":"","type":"address","internalType":"address"}],"outputs":[{"name":"","type":"bool","internalType":"bool"}],"stateMutability":"view"},{"type":"event","name":"Initialized","inputs":[{"name":"version","type":"uint64","indexed":false,"internalType":"uint64"}],"anonymous":false},{"type":"event","name":"TradeExecuted","inputs":[{"name":"token","type":"address","indexed":true,"internalType":"address"},{"name":"amountIn","type":"uint256","indexed":false,"internalType":"uint256"},{"name":"amountOut","type":"uint256","indexed":false,"internalType":"uint256"},{"name":"isSell","type":"bool","indexed":false,"internalType":"bool"}],"anonymous":false},{"type":"event","name":"VaultFrozen","inputs":[],"anonymous":false},{"type":"event","name":"VaultUnfrozen","inputs":[],"anonymous":false},{"type":"error","name":"ExceedsDailyLossLimit","inputs":[{"name":"projectedLoss","type":"uint256","internalType":"uint256"}]},{"type":"error","name":"ExceedsMaxSwapSize","inputs":[{"name":"amount","type":"uint256","internalType":"uint256"}]},{"type":"error","name":"InvalidInitialization","inputs":[]},{"type":"error","name":"NotAuthorized","inputs":[]},{"type":"error","name":"NotInitializing","inputs":[]},{"type":"error","name":"TokenNotWhitelisted","inputs":[{"name":"token","type":"address","internalType":"address"}]},{"type":"error","name":"VaultIsFrozen","inputs":[]}],"bytecode":{"object":"0x608060405234801561000f575f5ffd5b5061001e61002360201b60201c565b61019e565b5f61003261012160201b60201c565b9050805f0160089054906101000a900460ff161561007c576040517ff92ee8a900000000000000000000000000000000000000000000000000000000815260040160405180910390fd5b67ffffffffffffffff8016815f015f9054906101000a900467ffffffffffffffff1667ffffffffffffffff161461011e5767ffffffffffffffff815f015f6101000a81548167ffffffffffffffff021916908367ffffffffffffffff1602179055507fc7f505b2f371ae2175ee4913f4499e1f2633a7b5936321eed1cdaeb6115181d267ffffffffffffffff6040516101159190610185565b60405180910390a15b50565b5f5f61013161013a60201b60201c565b90508091505090565b5f7ff0c57e16840df040f15088dc2f81fe391c3923bec73e23a9662efc9c229c6a005f1b905090565b5f67ffffffffffffffff82169050919050565b61017f81610163565b82525050565b5f6020820190506101985f830184610176565b92915050565b61113e806101ab5f395ff3fe6080604052600436106100aa575f3560e01c8063779e306b11610063578063779e306b146101995780638da5cb5b146101c3578063958e80e1146101ed578063ada1469814610217578063daf9c2101461022d578063f5ff5c7614610269576100b1565b806333eeb147146100b55780633f5bda61146100df5780634f28cac2146101075780635a907818146101315780635c9302c9146101595780636a28f00014610183576100b1565b366100b157005b5f5ffd5b3480156100c0575f5ffd5b506100c9610293565b6040516100d69190610b3e565b60405180910390f35b3480156100ea575f5ffd5b5061010560048036038101906101009190610c56565b6102a5565b005b348015610112575f5ffd5b5061011b610628565b6040516101289190610cfb565b60405180910390f35b34801561013c575f5ffd5b5061015760048036038101906101529190610e5c565b61062e565b005b348015610164575f5ffd5b5061016d6108d7565b60405161017a9190610cfb565b60405180910390f35b34801561018e575f5ffd5b506101976108dd565b005b3480156101a4575f5ffd5b506101ad6109a9565b6040516101ba9190610cfb565b60405180910390f35b3480156101ce575f5ffd5b506101d76109af565b6040516101e49190610efe565b60405180910390f35b3480156101f8575f5ffd5b506102016109d3565b60405161020e9190610cfb565b60405180910390f35b348015610222575f5ffd5b5061022b6109d9565b005b348015610238575f5ffd5b50610253600480360381019061024e9190610f17565b610aa6565b6040516102609190610b3e565b60405180910390f35b348015610274575f5ffd5b5061027d610ac3565b60405161028a9190610efe565b60405180910390f35b60045f9054906101000a900460ff1681565b60015f9054906101000a900473ffffffffffffffffffffffffffffffffffffffff1673ffffffffffffffffffffffffffffffffffffffff163373ffffffffffffffffffffffffffffffffffffffff161415801561034e57505f5f9054906101000a900473ffffffffffffffffffffffffffffffffffffffff1673ffffffffffffffffffffffffffffffffffffffff163373ffffffffffffffffffffffffffffffffffffffff1614155b15610385576040517fea8e4eb500000000000000000000000000000000000000000000000000000000815260040160405180910390fd5b60045f9054906101000a900460ff16156103cb576040517faa0d546200000000000000000000000000000000000000000000000000000000815260040160405180910390fd5b60055f8773ffffffffffffffffffffffffffffffffffffffff1673ffffffffffffffffffffffffffffffffffffffff1681526020019081526020015f205f9054906101000a900460ff1661045657856040517fea3bff2e00000000000000000000000000000000000000000000000000000000815260040161044d9190610efe565b60405180910390fd5b60055f8673ffffffffffffffffffffffffffffffffffffffff1673ffffffffffffffffffffffffffffffffffffffff1681526020019081526020015f205f9054906101000a900460ff166104e157846040517fea3bff2e0000000000000000000000000000000000000000000000000000000081526004016104d89190610efe565b60405180910390fd5b60025484111561052857836040517f38bdee9c00000000000000000000000000000000000000000000000000000000815260040161051f9190610cfb565b60405180910390fd5b5f62015180426105389190610f9c565b905060065481111561055357806006819055505f6007819055505b600354846007546105649190610fcc565b11156105b457836007546105789190610fcc565b6040517fcf8d85ca0000000000000000000000000000000000000000000000000000000081526004016105ab9190610cfb565b60405180910390fd5b8360075f8282546105c59190610fcc565b925050819055508673ffffffffffffffffffffffffffffffffffffffff167f22e65658d927d52787b34c1428812a73638241d2749f7cbc823fb5f21d684665865f600160405161061793929190611041565b60405180910390a250505050505050565b60025481565b5f610637610ae8565b90505f815f0160089054906101000a900460ff161590505f825f015f9054906101000a900467ffffffffffffffff1690505f5f8267ffffffffffffffff1614801561067f5750825b90505f60018367ffffffffffffffff161480156106b257505f3073ffffffffffffffffffffffffffffffffffffffff163b145b9050811580156106c0575080155b156106f7576040517ff92ee8a900000000000000000000000000000000000000000000000000000000815260040160405180910390fd5b6001855f015f6101000a81548167ffffffffffffffff021916908367ffffffffffffffff1602179055508315610744576001855f0160086101000a81548160ff0219169083151502179055505b895f5f6101000a81548173ffffffffffffffffffffffffffffffffffffffff021916908373ffffffffffffffffffffffffffffffffffffffff1602179055508860015f6101000a81548173ffffffffffffffffffffffffffffffffffffffff021916908373ffffffffffffffffffffffffffffffffffffffff16021790555087600281905550866003819055505f5f90505b865181101561085b57600160055f8984815181106107f7576107f6611076565b5b602002602001015173ffffffffffffffffffffffffffffffffffffffff1673ffffffffffffffffffffffffffffffffffffffff1681526020019081526020015f205f6101000a81548160ff02191690831515021790555080806001019150506107d6565b50620151804261086b9190610f9c565b60068190555083156108cb575f855f0160086101000a81548160ff0219169083151502179055507fc7f505b2f371ae2175ee4913f4499e1f2633a7b5936321eed1cdaeb6115181d260016040516108c291906110ef565b60405180910390a15b50505050505050505050565b60065481565b5f5f9054906101000a900473ffffffffffffffffffffffffffffffffffffffff1673ffffffffffffffffffffffffffffffffffffffff163373ffffffffffffffffffffffffffffffffffffffff1614610962576040517fea8e4eb500000000000000000000000000000000000000000000000000000000815260040160405180910390fd5b5f60045f6101000a81548160ff0219169083151502179055507f02fdfb0fcffa8f32cff39b574fd67572a1a44e3d1b7766bf6371bdbc75b46eb760405160405180910390a1565b60035481565b5f5f9054906101000a900473ffffffffffffffffffffffffffffffffffffffff1681565b60075481565b5f5f9054906101000a900473ffffffffffffffffffffffffffffffffffffffff1673ffffffffffffffffffffffffffffffffffffffff163373ffffffffffffffffffffffffffffffffffffffff1614610a5e576040517fea8e4eb500000000000000000000000000000000000000000000000000000000815260040160405180910390fd5b600160045f6101000a81548160ff0219169083151502179055507fa0822f8893f0d856f0b2c63476091b325f726bb4a832c3256c1677150010089660405160405180910390a1565b6005602052805f5260405f205f915054906101000a900460ff1681565b60015f9054906101000a900473ffffffffffffffffffffffffffffffffffffffff1681565b5f5f610af2610afb565b90508091505090565b5f7ff0c57e16840df040f15088dc2f81fe391c3923bec73e23a9662efc9c229c6a005f1b905090565b5f8115159050919050565b610b3881610b24565b82525050565b5f602082019050610b515f830184610b2f565b92915050565b5f604051905090565b5f5ffd5b5f5ffd5b5f73ffffffffffffffffffffffffffffffffffffffff82169050919050565b5f610b9182610b68565b9050919050565b610ba181610b87565b8114610bab575f5ffd5b50565b5f81359050610bbc81610b98565b92915050565b5f819050919050565b610bd481610bc2565b8114610bde575f5ffd5b50565b5f81359050610bef81610bcb565b92915050565b5f5ffd5b5f5ffd5b5f5ffd5b5f5f83601f840112610c1657610c15610bf5565b5b8235905067ffffffffffffffff811115610c3357610c32610bf9565b5b602083019150836001820283011115610c4f57610c4e610bfd565b5b9250929050565b5f5f5f5f5f5f60a08789031215610c7057610c6f610b60565b5b5f610c7d89828a01610bae565b9650506020610c8e89828a01610bae565b9550506040610c9f89828a01610be1565b9450506060610cb089828a01610be1565b935050608087013567ffffffffffffffff811115610cd157610cd0610b64565b5b610cdd89828a01610c01565b92509250509295509295509295565b610cf581610bc2565b82525050565b5f602082019050610d0e5f830184610cec565b92915050565b5f601f19601f8301169050919050565b7f4e487b71000000000000000000000000000000000000000000000000000000005f52604160045260245ffd5b610d5a82610d14565b810181811067ffffffffffffffff82111715610d7957610d78610d24565b5b80604052505050565b5f610d8b610b57565b9050610d978282610d51565b919050565b5f67ffffffffffffffff821115610db657610db5610d24565b5b602082029050602081019050919050565b5f610dd9610dd484610d9c565b610d82565b90508083825260208201905060208402830185811115610dfc57610dfb610bfd565b5b835b81811015610e255780610e118882610bae565b845260208401935050602081019050610dfe565b5050509392505050565b5f82601f830112610e4357610e42610bf5565b5b8135610e53848260208601610dc7565b91505092915050565b5f5f5f5f5f60a08688031215610e7557610e74610b60565b5b5f610e8288828901610bae565b9550506020610e9388828901610bae565b9450506040610ea488828901610be1565b9350506060610eb588828901610be1565b925050608086013567ffffffffffffffff811115610ed657610ed5610b64565b5b610ee288828901610e2f565b9150509295509295909350565b610ef881610b87565b82525050565b5f602082019050610f115f830184610eef565b92915050565b5f60208284031215610f2c57610f2b610b60565b5b5f610f3984828501610bae565b91505092915050565b7f4e487b71000000000000000000000000000000000000000000000000000000005f52601260045260245ffd5b7f4e487b71000000000000000000000000000000000000000000000000000000005f52601160045260245ffd5b5f610fa682610bc2565b9150610fb183610bc2565b925082610fc157610fc0610f42565b5b828204905092915050565b5f610fd682610bc2565b9150610fe183610bc2565b9250828201905080821115610ff957610ff8610f6f565b5b92915050565b5f819050919050565b5f819050919050565b5f61102b61102661102184610fff565b611008565b610bc2565b9050919050565b61103b81611011565b82525050565b5f6060820190506110545f830186610cec565b6110616020830185611032565b61106e6040830184610b2f565b949350505050565b7f4e487b71000000000000000000000000000000000000000000000000000000005f52603260045260245ffd5b5f819050919050565b5f67ffffffffffffffff82169050919050565b5f6110d96110d46110cf846110a3565b611008565b6110ac565b9050919050565b6110e9816110bf565b82525050565b5f6020820190506111025f8301846110e0565b9291505056fea2646970667358221220b562f0e792149970bd6ef1708c3e638e8874fc6a5c20b5a073afe25c159a26b764736f6c63430008230033","linkReferences":{}},"methodIdentifiers":{"agent()":"f5ff5c76","currentDay()":"5c9302c9","currentDayLoss()":"958e80e1","dailyLossLimit()":"779e306b","executeTrade(address,address,uint256,uint256,bytes)":"3f5bda61","initialize(address,address,uint256,uint256,address[])":"5a907818","isFrozen()":"33eeb147","killSwitch()":"ada14698","maxSwapSize()":"4f28cac2","owner()":"8da5cb5b","unfreeze()":"6a28f000","whitelistedTokens(address)":"daf9c210"},"id":26}